{
  "_format": "hh-sol-artifact-1",
  "contractName": "DAN",
  "sourceName": "contracts/DAN.sol",
  "abi": [
    {
      "inputs": [],
      "stateMutability": "nonpayable",
      "type": "constructor"
    },
    {
      "anonymous": false,
      "inputs": [
        {
          "indexed": true,
          "internalType": "address",
          "name": "owner",
          "type": "address"
        },
        {
          "indexed": true,
          "internalType": "address",
          "name": "spender",
          "type": "address"
        },
        {
          "indexed": false,
          "internalType": "uint256",
          "name": "value",
          "type": "uint256"
        }
      ],
      "name": "Approval",
      "type": "event"
    },
    {
      "anonymous": false,
      "inputs": [
        {
          "indexed": true,
          "internalType": "address",
          "name": "tokenOwner",
          "type": "address"
        },
        {
          "indexed": true,
          "internalType": "address",
          "name": "spender",
          "type": "address"
        },
        {
          "indexed": false,
          "internalType": "uint256",
          "name": "amount",
          "type": "uint256"
        }
      ],
      "name": "ApprovedAmount",
      "type": "event"
    },
    {
      "anonymous": false,
      "inputs": [
        {
          "indexed": true,
          "internalType": "address",
          "name": "burner",
          "type": "address"
        },
        {
          "indexed": false,
          "internalType": "uint256",
          "name": "amount",
          "type": "uint256"
        }
      ],
      "name": "Burn",
      "type": "event"
    },
    {
      "anonymous": false,
      "inputs": [
        {
          "indexed": false,
          "internalType": "uint256",
          "name": "feeAmount",
          "type": "uint256"
        },
        {
          "indexed": false,
          "internalType": "uint256",
          "name": "amountAfterFee",
          "type": "uint256"
        }
      ],
      "name": "FeeDetails",
      "type": "event"
    },
    {
      "anonymous": false,
      "inputs": [
        {
          "indexed": false,
          "internalType": "uint256",
          "name": "sellFee",
          "type": "uint256"
        },
        {
          "indexed": false,
          "internalType": "uint256",
          "name": "buyFee",
          "type": "uint256"
        }
      ],
      "name": "FeesUpdated",
      "type": "event"
    },
    {
      "anonymous": false,
      "inputs": [
        {
          "indexed": true,
          "internalType": "address",
          "name": "newMarketingReceiver",
          "type": "address"
        }
      ],
      "name": "MarketingReceiverUpdated",
      "type": "event"
    },
    {
      "anonymous": false,
      "inputs": [
        {
          "indexed": true,
          "internalType": "address",
          "name": "previousOwner",
          "type": "address"
        },
        {
          "indexed": true,
          "internalType": "address",
          "name": "newOwner",
          "type": "address"
        }
      ],
      "name": "OwnershipTransferred",
      "type": "event"
    },
    {
      "anonymous": false,
      "inputs": [
        {
          "indexed": true,
          "internalType": "address",
          "name": "pair",
          "type": "address"
        },
        {
          "indexed": true,
          "internalType": "bool",
          "name": "value",
          "type": "bool"
        }
      ],
      "name": "SetAutomatedMarketMakerPair",
      "type": "event"
    },
    {
      "anonymous": false,
      "inputs": [
        {
          "indexed": true,
          "internalType": "address",
          "name": "from",
          "type": "address"
        },
        {
          "indexed": true,
          "internalType": "address",
          "name": "to",
          "type": "address"
        },
        {
          "indexed": false,
          "internalType": "uint256",
          "name": "value",
          "type": "uint256"
        }
      ],
      "name": "Transfer",
      "type": "event"
    },
    {
      "anonymous": false,
      "inputs": [
        {
          "indexed": true,
          "internalType": "address",
          "name": "from",
          "type": "address"
        },
        {
          "indexed": true,
          "internalType": "address",
          "name": "to",
          "type": "address"
        },
        {
          "indexed": false,
          "internalType": "uint256",
          "name": "value",
          "type": "uint256"
        }
      ],
      "name": "TransferConfirmed",
      "type": "event"
    },
    {
      "anonymous": false,
      "inputs": [
        {
          "indexed": true,
          "internalType": "address",
          "name": "sender",
          "type": "address"
        },
        {
          "indexed": true,
          "internalType": "address",
          "name": "recipient",
          "type": "address"
        },
        {
          "indexed": false,
          "internalType": "uint256",
          "name": "amount",
          "type": "uint256"
        }
      ],
      "name": "TransferDetails",
      "type": "event"
    },
    {
      "anonymous": false,
      "inputs": [
        {
          "indexed": true,
          "internalType": "address",
          "name": "sender",
          "type": "address"
        },
        {
          "indexed": false,
          "internalType": "uint256",
          "name": "ethAmount",
          "type": "uint256"
        },
        {
          "indexed": false,
          "internalType": "uint256",
          "name": "tokenAmount",
          "type": "uint256"
        }
      ],
      "name": "WithdrawAll",
      "type": "event"
    },
    {
      "anonymous": false,
      "inputs": [
        {
          "indexed": true,
          "internalType": "address",
          "name": "sender",
          "type": "address"
        },
        {
          "indexed": false,
          "internalType": "uint256",
          "name": "amountWithdrawn",
          "type": "uint256"
        },
        {
          "indexed": false,
          "internalType": "uint256",
          "name": "remainingContractBalance",
          "type": "uint256"
        }
      ],
      "name": "WithdrawETHToMarketing",
      "type": "event"
    },
    {
      "inputs": [
        {
          "internalType": "address",
          "name": "owner",
          "type": "address"
        },
        {
          "internalType": "address",
          "name": "spender",
          "type": "address"
        }
      ],
      "name": "allowance",
      "outputs": [
        {
          "internalType": "uint256",
          "name": "",
          "type": "uint256"
        }
      ],
      "stateMutability": "view",
      "type": "function"
    },
    {
      "inputs": [
        {
          "internalType": "address",
          "name": "spender",
          "type": "address"
        },
        {
          "internalType": "uint256",
          "name": "amount",
          "type": "uint256"
        }
      ],
      "name": "approve",
      "outputs": [
        {
          "internalType": "bool",
          "name": "",
          "type": "bool"
        }
      ],
      "stateMutability": "nonpayable",
      "type": "function"
    },
    {
      "inputs": [
        {
          "internalType": "address",
          "name": "",
          "type": "address"
        }
      ],
      "name": "automatedMarketMakerPairs",
      "outputs": [
        {
          "internalType": "bool",
          "name": "",
          "type": "bool"
        }
      ],
      "stateMutability": "view",
      "type": "function"
    },
    {
      "inputs": [
        {
          "internalType": "address",
          "name": "account",
          "type": "address"
        }
      ],
      "name": "balanceOf",
      "outputs": [
        {
          "internalType": "uint256",
          "name": "",
          "type": "uint256"
        }
      ],
      "stateMutability": "view",
      "type": "function"
    },
    {
      "inputs": [
        {
          "internalType": "uint256",
          "name": "amount",
          "type": "uint256"
        }
      ],
      "name": "burn",
      "outputs": [],
      "stateMutability": "nonpayable",
      "type": "function"
    },
    {
      "inputs": [],
      "name": "buyFee",
      "outputs": [
        {
          "internalType": "uint256",
          "name": "",
          "type": "uint256"
        }
      ],
      "stateMutability": "view",
      "type": "function"
    },
    {
      "inputs": [],
      "name": "cancelDANWithdrawal",
      "outputs": [],
      "stateMutability": "nonpayable",
      "type": "function"
    },
    {
      "inputs": [],
      "name": "cancelETHWithdrawal",
      "outputs": [],
      "stateMutability": "nonpayable",
      "type": "function"
    },
    {
      "inputs": [],
      "name": "dead",
      "outputs": [
        {
          "internalType": "address",
          "name": "",
          "type": "address"
        }
      ],
      "stateMutability": "view",
      "type": "function"
    },
    {
      "inputs": [],
      "name": "decimals",
      "outputs": [
        {
          "internalType": "uint8",
          "name": "",
          "type": "uint8"
        }
      ],
      "stateMutability": "pure",
      "type": "function"
    },
    {
      "inputs": [
        {
          "internalType": "address",
          "name": "spender",
          "type": "address"
        },
        {
          "internalType": "uint256",
          "name": "subtractedValue",
          "type": "uint256"
        }
      ],
      "name": "decreaseAllowance",
      "outputs": [
        {
          "internalType": "bool",
          "name": "",
          "type": "bool"
        }
      ],
      "stateMutability": "nonpayable",
      "type": "function"
    },
    {
      "inputs": [],
      "name": "getFees",
      "outputs": [
        {
          "internalType": "uint256",
          "name": "currentSellFee",
          "type": "uint256"
        },
        {
          "internalType": "uint256",
          "name": "currentBuyFee",
          "type": "uint256"
        }
      ],
      "stateMutability": "view",
      "type": "function"
    },
    {
      "inputs": [],
      "name": "getMarketingReceiver",
      "outputs": [
        {
          "internalType": "address",
          "name": "",
          "type": "address"
        }
      ],
      "stateMutability": "view",
      "type": "function"
    },
    {
      "inputs": [
        {
          "internalType": "address",
          "name": "spender",
          "type": "address"
        },
        {
          "internalType": "uint256",
          "name": "addedValue",
          "type": "uint256"
        }
      ],
      "name": "increaseAllowance",
      "outputs": [
        {
          "internalType": "bool",
          "name": "",
          "type": "bool"
        }
      ],
      "stateMutability": "nonpayable",
      "type": "function"
    },
    {
      "inputs": [],
      "name": "isDANWithdrawalPending",
      "outputs": [
        {
          "internalType": "bool",
          "name": "",
          "type": "bool"
        }
      ],
      "stateMutability": "view",
      "type": "function"
    },
    {
      "inputs": [],
      "name": "isETHWithdrawalPending",
      "outputs": [
        {
          "internalType": "bool",
          "name": "",
          "type": "bool"
        }
      ],
      "stateMutability": "view",
      "type": "function"
    },
    {
      "inputs": [
        {
          "internalType": "address",
          "name": "_address",
          "type": "address"
        }
      ],
      "name": "isExempt",
      "outputs": [
        {
          "internalType": "bool",
          "name": "",
          "type": "bool"
        }
      ],
      "stateMutability": "view",
      "type": "function"
    },
    {
      "inputs": [
        {
          "internalType": "address",
          "name": "",
          "type": "address"
        }
      ],
      "name": "isFeeExempt",
      "outputs": [
        {
          "internalType": "bool",
          "name": "",
          "type": "bool"
        }
      ],
      "stateMutability": "view",
      "type": "function"
    },
    {
      "inputs": [],
      "name": "manualSwapTokensForETH",
      "outputs": [],
      "stateMutability": "nonpayable",
      "type": "function"
    },
    {
      "inputs": [],
      "name": "minEthBeforeTransfer",
      "outputs": [
        {
          "internalType": "uint256",
          "name": "",
          "type": "uint256"
        }
      ],
      "stateMutability": "view",
      "type": "function"
    },
    {
      "inputs": [],
      "name": "name",
      "outputs": [
        {
          "internalType": "string",
          "name": "",
          "type": "string"
        }
      ],
      "stateMutability": "pure",
      "type": "function"
    },
    {
      "inputs": [],
      "name": "owner",
      "outputs": [
        {
          "internalType": "address",
          "name": "",
          "type": "address"
        }
      ],
      "stateMutability": "view",
      "type": "function"
    },
    {
      "inputs": [],
      "name": "pair",
      "outputs": [
        {
          "internalType": "address",
          "name": "",
          "type": "address"
        }
      ],
      "stateMutability": "view",
      "type": "function"
    },
    {
      "inputs": [],
      "name": "renounceOwnership",
      "outputs": [],
      "stateMutability": "nonpayable",
      "type": "function"
    },
    {
      "inputs": [],
      "name": "router",
      "outputs": [
        {
          "internalType": "contract IUniswapV2Router02",
          "name": "",
          "type": "address"
        }
      ],
      "stateMutability": "view",
      "type": "function"
    },
    {
      "inputs": [],
      "name": "routerCA",
      "outputs": [
        {
          "internalType": "address",
          "name": "",
          "type": "address"
        }
      ],
      "stateMutability": "view",
      "type": "function"
    },
    {
      "inputs": [],
      "name": "sellFee",
      "outputs": [
        {
          "internalType": "uint256",
          "name": "",
          "type": "uint256"
        }
      ],
      "stateMutability": "view",
      "type": "function"
    },
    {
      "inputs": [
        {
          "internalType": "address",
          "name": "newPair",
          "type": "address"
        },
        {
          "internalType": "bool",
          "name": "value",
          "type": "bool"
        }
      ],
      "name": "setAutomatedMarketMakerPair",
      "outputs": [],
      "stateMutability": "nonpayable",
      "type": "function"
    },
    {
      "inputs": [
        {
          "internalType": "address",
          "name": "_address",
          "type": "address"
        },
        {
          "internalType": "bool",
          "name": "_status",
          "type": "bool"
        }
      ],
      "name": "setExemptStatus",
      "outputs": [],
      "stateMutability": "nonpayable",
      "type": "function"
    },
    {
      "inputs": [
        {
          "internalType": "address payable",
          "name": "newMarketingReceiver",
          "type": "address"
        }
      ],
      "name": "setMarketingReceiver",
      "outputs": [],
      "stateMutability": "nonpayable",
      "type": "function"
    },
    {
      "inputs": [],
      "name": "symbol",
      "outputs": [
        {
          "internalType": "string",
          "name": "",
          "type": "string"
        }
      ],
      "stateMutability": "pure",
      "type": "function"
    },
    {
      "inputs": [],
      "name": "totalSupply",
      "outputs": [
        {
          "internalType": "uint256",
          "name": "",
          "type": "uint256"
        }
      ],
      "stateMutability": "view",
      "type": "function"
    },
    {
      "inputs": [
        {
          "internalType": "address",
          "name": "recipient",
          "type": "address"
        },
        {
          "internalType": "uint256",
          "name": "amount",
          "type": "uint256"
        }
      ],
      "name": "transfer",
      "outputs": [
        {
          "internalType": "bool",
          "name": "",
          "type": "bool"
        }
      ],
      "stateMutability": "nonpayable",
      "type": "function"
    },
    {
      "inputs": [
        {
          "internalType": "address",
          "name": "sender",
          "type": "address"
        },
        {
          "internalType": "address",
          "name": "recipient",
          "type": "address"
        },
        {
          "internalType": "uint256",
          "name": "amount",
          "type": "uint256"
        }
      ],
      "name": "transferFrom",
      "outputs": [
        {
          "internalType": "bool",
          "name": "",
          "type": "bool"
        }
      ],
      "stateMutability": "nonpayable",
      "type": "function"
    },
    {
      "inputs": [
        {
          "internalType": "address",
          "name": "newOwner",
          "type": "address"
        }
      ],
      "name": "transferOwnership",
      "outputs": [],
      "stateMutability": "nonpayable",
      "type": "function"
    },
    {
      "inputs": [],
      "name": "withdrawAllToOwner",
      "outputs": [],
      "stateMutability": "nonpayable",
      "type": "function"
    },
    {
      "inputs": [],
      "name": "withdrawDANToMarketing",
      "outputs": [],
      "stateMutability": "nonpayable",
      "type": "function"
    },
    {
      "inputs": [],
      "name": "withdrawETHToMarketing",
      "outputs": [],
      "stateMutability": "nonpayable",
      "type": "function"
    },
    {
      "stateMutability": "payable",
      "type": "receive"
    }
  ],
  "bytecode": "0x6080604052620000126012600a620004b7565b62000024906508f9f75dd280620004cf565b60025567016345785d8a0000600355620186a06008556103e86009819055600a55600c80546001600160a01b031990811661dead17909155600d8054909116737a250d5630b4cf539739df2c5dacb4c659f2488d179055600f600e556010805461ffff60a01b191690553480156200009b57600080fd5b50620000a733620002fe565b60018055600d546040805163c45a015560e01b815290516001600160a01b0390921691600091839163c45a0155916004808201926020929091908290030181865afa158015620000fb573d6000803e3d6000fd5b505050506040513d601f19601f82011682018060405250810190620001219190620004e9565b6001600160a01b031663c9c6539630846001600160a01b031663ad5c46486040518163ffffffff1660e01b8152600401602060405180830381865afa1580156200016f573d6000803e3d6000fd5b505050506040513d601f19601f82011682018060405250810190620001959190620004e9565b6040516001600160e01b031960e085901b1681526001600160a01b039283166004820152911660248201526044016020604051808303816000875af1158015620001e3573d6000803e3d6000fd5b505050506040513d601f19601f82011682018060405250810190620002099190620004e9565b600f80546001600160a01b038086166001600160a01b031992831617909255601080549284169290911682179055909150620002479060016200034e565b600b80546001600160a01b03191673b5a915a0c9e505452e052a4d67cdc1417e721dde178155306000908152600660209081526040808320805460ff19908116600190811790925594546001600160a01b0316845281842080548616821790553380855282852080549096169091179094556002546004835281842081905590519081527fddf252ad1be2c89b69c2b068fc378daa952ba7f163c4a11628f55a4df523b3ef910160405180910390a3505062000514565b600080546001600160a01b038381166001600160a01b0319831681178455604051919092169283917f8be0079c531659141344cd1fd0a4f28419497f9722a3daafe3b4186f6b6457e09190a35050565b6001600160a01b038216600081815260076020526040808220805460ff191685151590811790915590519092917fffa9187bf1f18bf477bd0ea1bcbb64e93b6a98132473929edfce215cd9b16fab91a35050565b634e487b7160e01b600052601160045260246000fd5b600181815b80851115620003f9578160001904821115620003dd57620003dd620003a2565b80851615620003eb57918102915b93841c9390800290620003bd565b509250929050565b6000826200041257506001620004b1565b816200042157506000620004b1565b81600181146200043a5760028114620004455762000465565b6001915050620004b1565b60ff841115620004595762000459620003a2565b50506001821b620004b1565b5060208310610133831016604e8410600b84101617156200048a575081810a620004b1565b620004968383620003b8565b8060001904821115620004ad57620004ad620003a2565b0290505b92915050565b6000620004c860ff84168362000401565b9392505050565b8082028115828204841417620004b157620004b1620003a2565b600060208284031215620004fc57600080fd5b81516001600160a01b0381168114620004c857600080fd5b611e8380620005246000396000f3fe6080604052600436106102295760003560e01c806375b6253211610123578063a9059cbb116100ab578063c55d14551161006f578063c55d14551461065e578063db8d55f114610673578063dd62ed3e1461069b578063f2fde38b146106e1578063f887ea401461070157600080fd5b8063a9059cbb1461059f578063ad5dff73146105bf578063b11ac997146105f8578063b62496f51461060d578063bb3b3ead1461063d57600080fd5b80638eae57ae116100f25780638eae57ae1461051e57806395d89b41146102355780639a7a23d61461053f578063a457c2d71461055f578063a8aa1b311461057f57600080fd5b806375b62532146104b657806380710f39146104d6578063834b39b7146104eb5780638da5cb5b1461050057600080fd5b806336cf7c87116101b157806347062402116101755780634706240214610420578063534c09061461043657806354c3b5271461045657806370a082311461046b578063715018a6146104a157600080fd5b806336cf7c871461037a578063395093511461039a5780633f4218e0146103ba57806340257ac8146103ea57806342966c681461040057600080fd5b80632161c734116101f85780632161c734146102f157806323b872dd146103135780632b14ca56146103335780632c53955114610349578063313ce5671461035e57600080fd5b806306fdde0314610235578063095ea7b314610270578063127b7a63146102a057806318160ddd146102d257600080fd5b3661023057005b600080fd5b34801561024157600080fd5b5060408051808201825260038152622220a760e91b602082015290516102679190611ad2565b60405180910390f35b34801561027c57600080fd5b5061029061028b366004611b35565b610721565b6040519015158152602001610267565b3480156102ac57600080fd5b50600b546001600160a01b03165b6040516001600160a01b039091168152602001610267565b3480156102de57600080fd5b506002545b604051908152602001610267565b3480156102fd57600080fd5b5061031161030c366004611b61565b610738565b005b34801561031f57600080fd5b5061029061032e366004611b9f565b61076b565b34801561033f57600080fd5b506102e360095481565b34801561035557600080fd5b50610311610782565b34801561036a57600080fd5b5060405160128152602001610267565b34801561038657600080fd5b50600c546102ba906001600160a01b031681565b3480156103a657600080fd5b506102906103b5366004611b35565b6108d0565b3480156103c657600080fd5b506102906103d5366004611be0565b60066020526000908152604090205460ff1681565b3480156103f657600080fd5b506102e360035481565b34801561040c57600080fd5b5061031161041b366004611bfd565b61090c565b34801561042c57600080fd5b506102e3600a5481565b34801561044257600080fd5b50600d546102ba906001600160a01b031681565b34801561046257600080fd5b5061031161093c565b34801561047757600080fd5b506102e3610486366004611be0565b6001600160a01b031660009081526004602052604090205490565b3480156104ad57600080fd5b506103116109b8565b3480156104c257600080fd5b506103116104d1366004611be0565b6109cc565b3480156104e257600080fd5b50610311610a9c565b3480156104f757600080fd5b50610311610ba8565b34801561050c57600080fd5b506000546001600160a01b03166102ba565b34801561052a57600080fd5b5060105461029090600160a81b900460ff1681565b34801561054b57600080fd5b5061031161055a366004611b61565b610d79565b34801561056b57600080fd5b5061029061057a366004611b35565b610e0f565b34801561058b57600080fd5b506010546102ba906001600160a01b031681565b3480156105ab57600080fd5b506102906105ba366004611b35565b610ea0565b3480156105cb57600080fd5b506102906105da366004611be0565b6001600160a01b031660009081526006602052604090205460ff1690565b34801561060457600080fd5b50610311610ec1565b34801561061957600080fd5b50610290610628366004611be0565b60076020526000908152604090205460ff1681565b34801561064957600080fd5b5060105461029090600160a01b900460ff1681565b34801561066a57600080fd5b50610311610ee5565b34801561067f57600080fd5b50600954600a5460408051928352602083019190915201610267565b3480156106a757600080fd5b506102e36106b6366004611c16565b6001600160a01b03918216600090815260056020908152604080832093909416825291909152205490565b3480156106ed57600080fd5b506103116106fc366004611be0565b610f61565b34801561070d57600080fd5b50600f546102ba906001600160a01b031681565b600061072e338484610fd7565b5060015b92915050565b6107406110e5565b6001600160a01b03919091166000908152600660205260409020805460ff1916911515919091179055565b600061077884848461113f565b5060019392505050565b61078a6110e5565b601054600160a81b900460ff16156107f55760405162461bcd60e51b815260206004820152602360248201527f412044414e207769746864726177616c20697320616c72656164792070656e64604482015262696e6760e81b60648201526084015b60405180910390fd5b306000908152600460205260409020548061084a5760405162461bcd60e51b81526020600482015260156024820152742737903a37b5b2b739903a37903a3930b739b332b960591b60448201526064016107ec565b60006108584261012c611c5a565b90508042106108a15760405162461bcd60e51b8152602060048201526015602482015274151c985b9cd858dd1a5bdb881d1a5b5959081bdd5d605a1b60448201526064016107ec565b600b546108b99030906001600160a01b031684611229565b50506010805460ff60a81b1916600160a81b179055565b3360008181526005602090815260408083206001600160a01b0387168452909152812054909161072e918590610907908690611c5a565b610fd7565b6109146110e5565b60006109226012600a611d51565b61092c9083611d5d565b9050610938338261140e565b5050565b6109446110e5565b601054600160a81b900460ff166109a95760405162461bcd60e51b815260206004820152602360248201527f4e6f2070656e64696e672044414e207769746864726177616c20746f2063616e60448201526218d95b60ea1b60648201526084016107ec565b6010805460ff60a81b19169055565b6109c06110e5565b6109ca60006115a3565b565b6109d46110e5565b6001600160a01b038116610a3c5760405162461bcd60e51b815260206004820152602960248201527f4d61726b6574696e672072656365697665722063616e6e6f74206265207a65726044820152686f206164647265737360b81b60648201526084016107ec565b600b80546001600160a01b0319166001600160a01b038316908117909155600081815260066020526040808220805460ff19166001179055517f1a9ebc3770a8a35e7494c4635aaedfa9f174ae61261b6e3aac36aeffc590cb649190a250565b610aa46110e5565b30600090815260046020526040902054479081151580610ac45750600081115b610b065760405162461bcd60e51b81526020600482015260136024820152724e6f7468696e6720746f20776974686472617760681b60448201526064016107ec565b8115610b4757600080546040516001600160a01b039091169184156108fc02918591818181858888f19350505050158015610b45573d6000803e3d6000fd5b505b8015610b6957610b6930610b636000546001600160a01b031690565b83611229565b604080518381526020810183905233917fae7bb41990cd336548a7c61b3ffa4a8207fe5e886087c23f5739a99114be7839910160405180910390a25050565b610bb06110e5565b601054600160a01b900460ff1615610c165760405162461bcd60e51b8152602060048201526024808201527f416e20455448207769746864726177616c20697320616c72656164792070656e60448201526364696e6760e01b60648201526084016107ec565b668e1bc9bf040000476000610c2d4261012c611c5a565b9050804210610c765760405162461bcd60e51b8152602060048201526015602482015274151c985b9cd858dd1a5bdb881d1a5b5959081bdd5d605a1b60448201526064016107ec565b828211610cde5760405162461bcd60e51b815260206004820152603060248201527f4e6f7420656e6f7567682045544820696e20636f6e747261637420746f20706560448201526f1c999bdc9b481dda5d1a191c985dd85b60821b60648201526084016107ec565b6000610cea8484611d74565b600b546040519192506001600160a01b03169082156108fc029083906000818181858888f19350505050158015610d25573d6000803e3d6000fd5b506040805182815247602082015233917f72a57d3d6134a77e651e2e97750615e224e690db64db56520c4d2d16edd5fc9f910160405180910390a250506010805460ff60a01b1916600160a01b1790555050565b610d816110e5565b6010546001600160a01b0390811690831603610e055760405162461bcd60e51b815260206004820152603960248201527f54686520706169722063616e6e6f742062652072656d6f7665642066726f6d2060448201527f6175746f6d617465644d61726b65744d616b657250616972730000000000000060648201526084016107ec565b61093882826115f3565b3360009081526005602090815260408083206001600160a01b038616845290915281205482811015610e915760405162461bcd60e51b815260206004820152602560248201527f45524332303a2064656372656173656420616c6c6f77616e63652062656c6f77604482015264207a65726f60d81b60648201526084016107ec565b61077833856109078685611d74565b6000610eaa611647565b610eb53384846116a0565b50600161073260018055565b610ec96110e5565b30600090815260046020526040902054610ee2816116b1565b50565b610eed6110e5565b601054600160a01b900460ff16610f525760405162461bcd60e51b815260206004820152602360248201527f4e6f2070656e64696e6720455448207769746864726177616c20746f2063616e60448201526218d95b60ea1b60648201526084016107ec565b6010805460ff60a01b19169055565b610f696110e5565b6001600160a01b038116610fce5760405162461bcd60e51b815260206004820152602660248201527f4f776e61626c653a206e6577206f776e657220697320746865207a65726f206160448201526564647265737360d01b60648201526084016107ec565b610ee2816115a3565b6001600160a01b03831661102d5760405162461bcd60e51b815260206004820181905260248201527f45524332303a20617070726f76652066726f6d207a65726f206164647265737360448201526064016107ec565b6001600160a01b0382166110835760405162461bcd60e51b815260206004820152601e60248201527f45524332303a20617070726f766520746f207a65726f2061646472657373000060448201526064016107ec565b6001600160a01b0383811660008181526005602090815260408083209487168084529482529182902085905590518481527f8c5be1e5ebec7d5bd14f71427d1e84f3dd0314c0f7b2291e5b200ac8c7c3b92591015b60405180910390a3505050565b6000546001600160a01b031633146109ca5760405162461bcd60e51b815260206004820181905260248201527f4f776e61626c653a2063616c6c6572206973206e6f7420746865206f776e657260448201526064016107ec565b6001600160a01b03831660009081526005602090815260408083203384529091529020548111156111c35760405162461bcd60e51b815260206004820152602860248201527f45524332303a207472616e7366657220616d6f756e74206578636565647320616044820152676c6c6f77616e636560c01b60648201526084016107ec565b6111ce8383836116a0565b6001600160a01b03831660009081526005602090815260408083203384529091529020546111fd908290611d74565b6001600160a01b0390931660009081526005602090815260408083203384529091529020929092555050565b6001600160a01b03831661128d5760405162461bcd60e51b815260206004820152602560248201527f45524332303a207472616e736665722066726f6d20746865207a65726f206164604482015264647265737360d81b60648201526084016107ec565b6001600160a01b0382166112ef5760405162461bcd60e51b815260206004820152602360248201527f45524332303a207472616e7366657220746f20746865207a65726f206164647260448201526265737360e81b60648201526084016107ec565b6001600160a01b0383166000908152600460205260409020548111156113665760405162461bcd60e51b815260206004820152602660248201527f45524332303a207472616e7366657220616d6f756e7420657863656564732062604482015265616c616e636560d01b60648201526084016107ec565b6001600160a01b03831660009081526004602052604090205461138a908290611d74565b6001600160a01b0380851660009081526004602052604080822093909355908416815220546113ba908290611c5a565b6001600160a01b0380841660008181526004602052604090819020939093559151908516907fddf252ad1be2c89b69c2b068fc378daa952ba7f163c4a11628f55a4df523b3ef906110d89085815260200190565b6001600160a01b03821661146e5760405162461bcd60e51b815260206004820152602160248201527f43616e6e6f74206275726e2066726f6d20746865207a65726f206164647265736044820152607360f81b60648201526084016107ec565b6001600160a01b0382166000908152600460205260409020548111156114d65760405162461bcd60e51b815260206004820152601c60248201527f496e73756666696369656e742062616c616e636520746f206275726e0000000060448201526064016107ec565b6001600160a01b038216600090815260046020526040812080548392906114fe908490611d74565b9250508190555080600260008282546115179190611d74565b90915550506040518181526001600160a01b038316907fcc16f5dbb4873280815c1ee09dbd06736cffcc184412cf7a71a0fdb75d397ca59060200160405180910390a2600c546040518281526001600160a01b03918216918416907fddf252ad1be2c89b69c2b068fc378daa952ba7f163c4a11628f55a4df523b3ef9060200160405180910390a35050565b600080546001600160a01b038381166001600160a01b0319831681178455604051919092169283917f8be0079c531659141344cd1fd0a4f28419497f9722a3daafe3b4186f6b6457e09190a35050565b6001600160a01b038216600081815260076020526040808220805460ff191685151590811790915590519092917fffa9187bf1f18bf477bd0ea1bcbb64e93b6a98132473929edfce215cd9b16fab91a35050565b6002600154036116995760405162461bcd60e51b815260206004820152601f60248201527f5265656e7472616e637947756172643a207265656e7472616e742063616c6c0060448201526064016107ec565b6002600155565b6116ab83838361180b565b50505050565b60408051600280825260608201835260009260208301908036833701905050905030816000815181106116e6576116e6611d87565b6001600160a01b03928316602091820292909201810191909152600f54604080516315ab88c960e31b81529051919093169263ad5c46489260048083019391928290030181865afa15801561173f573d6000803e3d6000fd5b505050506040513d601f19601f820116820180604052508101906117639190611d9d565b8160018151811061177657611776611d87565b6001600160a01b039283166020918202929092010152600f5461179c9130911684610fd7565b600f5460405163791ac94760e01b81526001600160a01b039091169063791ac947906117d5908590600090869030904290600401611dba565b600060405180830381600087803b1580156117ef57600080fd5b505af1158015611803573d6000803e3d6000fd5b505050505050565b6001600160a01b038316600090815260066020526040812054819060ff1615801561184f57506001600160a01b03841660009081526006602052604090205460ff16155b156118945761185e8585611941565b156118765761186f836009546119a3565b9050611894565b6118808585611a38565b156118945761189183600a546119a3565b90505b80156118e5576118a5853083611229565b6001600160a01b03851660009081526007602052604090205460ff166118e5576118ce816116b1565b60035447908111156118e3576118e381611a98565b505b60006118f18285611d74565b60408051848152602081018390529192507f667f096cc04f4af8b2901c952650ea69fe7e4a5c5914f7dee3fe25230327bb40910160405180910390a1611938868683611229565b95945050505050565b6001600160a01b03821660009081526007602052604081205460ff1615801561198257506001600160a01b03821660009081526007602052604090205460ff165b801561199c57506000546001600160a01b03848116911614155b9392505050565b60006119b182600019611e2b565b831115611a165760405162461bcd60e51b815260206004820152602d60248201527f45524332303a2061726974686d65746963206f766572666c6f7720696e20666560448201526c329031b0b631bab630ba34b7b760991b60648201526084016107ec565b600854600090611a268486611d5d565b611a309190611e2b565b949350505050565b6001600160a01b03821660009081526007602052604081205460ff168015611a7957506001600160a01b03821660009081526007602052604090205460ff16155b801561199c5750506000546001600160a01b0391821691161415919050565b600b546040516001600160a01b039091169082156108fc029083906000818181858888f19350505050158015610938573d6000803e3d6000fd5b600060208083528351808285015260005b81811015611aff57858101830151858201604001528201611ae3565b506000604082860101526040601f19601f8301168501019250505092915050565b6001600160a01b0381168114610ee257600080fd5b60008060408385031215611b4857600080fd5b8235611b5381611b20565b946020939093013593505050565b60008060408385031215611b7457600080fd5b8235611b7f81611b20565b915060208301358015158114611b9457600080fd5b809150509250929050565b600080600060608486031215611bb457600080fd5b8335611bbf81611b20565b92506020840135611bcf81611b20565b929592945050506040919091013590565b600060208284031215611bf257600080fd5b813561199c81611b20565b600060208284031215611c0f57600080fd5b5035919050565b60008060408385031215611c2957600080fd5b8235611c3481611b20565b91506020830135611b9481611b20565b634e487b7160e01b600052601160045260246000fd5b8082018082111561073257610732611c44565b600181815b80851115611ca8578160001904821115611c8e57611c8e611c44565b80851615611c9b57918102915b93841c9390800290611c72565b509250929050565b600082611cbf57506001610732565b81611ccc57506000610732565b8160018114611ce25760028114611cec57611d08565b6001915050610732565b60ff841115611cfd57611cfd611c44565b50506001821b610732565b5060208310610133831016604e8410600b8410161715611d2b575081810a610732565b611d358383611c6d565b8060001904821115611d4957611d49611c44565b029392505050565b600061199c8383611cb0565b808202811582820484141761073257610732611c44565b8181038181111561073257610732611c44565b634e487b7160e01b600052603260045260246000fd5b600060208284031215611daf57600080fd5b815161199c81611b20565b600060a082018783526020878185015260a0604085015281875180845260c086019150828901935060005b81811015611e0a5784516001600160a01b031683529383019391830191600101611de5565b50506001600160a01b03969096166060850152505050608001529392505050565b600082611e4857634e487b7160e01b600052601260045260246000fd5b50049056fea2646970667358221220d6bd2928fd76fd6e2fa989f6df4b1acc575bf298752d8bb21a824d63a347aa7764736f6c63430008130033",
  "linkReferences": {},
  "deployedLinkReferences": {}
}